:10000000B7EF01F0686F6C6100000C00EA6A210E26
:10001000E96EEF500EE0010E016E006A002EFED771
:10002000012EFBD74A0E006E002EFED700D0EF2E19
:10003000F2D7120028B002D08C9601D08C8695960B
:1000400028B202D08C9801D08C88959828B402D020
:100050008C9A01D08C8A959A28B602D08C9C01D0BB
:100060008C8C959C00008C80959000D08C90959005
:100070001200296A9586000E83B6010E2912958812
:10008000000E83B8010E006ED89000360050291281
:10009000958A000E83BA010E006E00360036FC0E03
:1000A000001600502912958C000E83BC010E006EC4
:1000B000003600360036F80E00160050291229C00E
:1000C00001F0120095869588958A958C8C8495947C
:1000D00000008C8095900000CCDF01C028F08C904F
:1000E000959000008C8095900000C3DF01C027F040
:1000F0008C90959095969598959A959C2838006E39
:10010000F00E001600502710016E8DEF00F0959054
:10011000959295948C929592D5D701C027F001BE07
:10012000FBD7255202E18C9201D08C82959200007F
:100130008C94959400008C9095902638276E0F0E25
:10014000271627C028F076DF26500F0B276E286E63
:1001500071DF1200280E166E0C0E176E010E186E4F
:10016000060E196E8C9095908C9295928C94959425
:1001700095969598959A959C9590959295940F0E35
:10018000216E44DF010E156E1550030808E3030EBF
:10019000286E50DF050E216E39DF152AF5D7020EC5
:1001A000286E48DF050E216E31DF156A15500308F1
:1001B0000FE3036A1550160FE96E000E0320EA6E76
:1001C000EFCF1AF0256A1AC026F0A1DF152AEED764
:1001D000E7EF01F0222C01D003D0400E236E01D0B6
:1001E000236A010E215C232623508009246E256A90
:1001F000266E8DDF12002050070A07E00B0A0AE086
:10020000060A10E0020A14E018D0010E216E226ED8
:10021000E1DF18D0256A010E266E79DF020E216E0D
:10022000F5DE10D0010E216E020E226ED3DF0AD051
:10023000256A100E266E6BDF05D0010E256E20C0DC
:1002400026F065DF12000900F5520CE0F6CF15F03C
:10025000F7CF16F0F5CF20F0CEDF15C0F6FF16C0B1
:10026000F7FFF1D71200156A1550070820E315347F
:10027000006E0036FC0E0016C250C30B0010C26E9A
:10028000020E006E002EFED700D00000D89015346C
:10029000036A040FE96E000E0320EA6EC282C2B246
:1002A000FED7C3CFEFFFC4CFECFF152ADDD701EF98
:1002B00002F0EACF1FF0E9CF1EF01838F0091A6EED
:1002C0001A26E20F1B6E320F1D6E18500F0B1B26E5
:1002D0001B261D26E90F1C6E1C261C2617380F0B2B
:1002E0001C261D261C361D361D1E1D3617500F0BD5
:1002F0001D261A36070E196E0A0E1C061D26FDE372
:100300001B061C26FDE31A061B26FDE319061A260A
:10031000FDE3EA6A190EE96E070E1E141E9CE9261B
:10032000000EEA22E9501D0803E1EA5201E11E8CA9
:10033000EF50006E08E11EBC06D01EB813D01EB6EA
:1003400002D0200E03D01E861E98300E0026EACF63
:1003500018F0E9CF17F000C020F04DDF18C0EAFF19
:1003600017C0E9FFEE501EACDDD71DEF02F0F86AB2
:10037000D09EC150C00B0F09C16E070EB46E046A47
:10038000056A066A076A086A096A0A6A0B6A0C6AD9
:100390000D6A0E6A0F6A106A116A126A136A9494DF
:1003A0008B940C0EBD6EB76AB66A94928B92BA6E3D
:1003B000000E0409CA6EFA0ECB6EBE6EBD50CF0B96
:1003C000BD6E7D0EBB6EBA50CF0BBA6EC3D6C05099
:1003D000C00BC06EC08EC280C150C00B0709C16E79
:1003E000010E216E226EF6DE040EF66E000EF76E22
:1003F0002ADF040E156EFA0E216E08DE152EFBD7CD
:1004000032D7146A1450070826E3010E216E226EBB
:10041000E1DED8901434036A040FE96E000E032065
:10042000EA6EECCF16F0ED52EFCF15F0100EE96E3C
:1004300016C018F015C017F03CD7040E156EFA0E52
:10044000216EE4DD152EFBD70A0EF66E000EF76E58
:0A045000FADE142AD7D7C4D7030040
:020000040030CA
:0E0000003FC03E1E0087A1000FC00FE00F4062
:00000001FF
;PIC18F4550
;CRC=7AE4  CREATED="25-Apr-16 10:50"
