:1000000034EF01F0686F6C610000EA6A0A0EE96E75
:10001000EF500EE0010E016E006A002EFED7012E99
:10002000FBD74A0E006E002EFED700D0EF2EF2D77F
:1000300012000FB002D08C9601D08C8695960FB22C
:1000400002D08C9801D08C8895980FB402D08C9AED
:1000500001D08C8A959A0FB602D08C9C01D08C8CE2
:10006000959C00008C80959000D08C90959012000B
:10007000106A9586000E83B6010E10129588000E48
:1000800083B8010E006ED890003600501012958A89
:10009000000E83BA010E006E00360036FC0E00160C
:1000A00000501012958C000E83BC010E006E0036BD
:1000B00000360036F80E00160050101210C001F085
:1000C000120095869588958A958C8C84959400006D
:1000D0008C8095900000CCDF01C00FF08C90959043
:1000E00000008C8095900000C3DF01C00EF08C9062
:1000F000959095969598959A959C0F38006EF00E70
:10010000001600500E10016E8CEF00F09590959245
:1001100095948C929592D5D701C00EF001BEFBD775
:100120000C5202E18C9201D08C82959200008C944A
:10013000959400008C9095900D380E6E0F0E0E1653
:100140000EC00FF076DF0D500F0B0E6E0F6E71DFCD
:100150001200280E066E0C0E076E010E086E060EBB
:10016000096E8C9095908C9295928C94959495961E
:100170009598959A959C9590959295940F0E0A6EE8
:1001800044DF010E056E0550030808E3030E0F6EF1
:1001900050DF050E0A6E39DF052AF5D7020E0F6E05
:1001A00048DF050E0A6E31DF056A055003080FE3CC
:1001B000036A0550060FE96E000E0320EA6EEFCFCA
:1001C0000AF00C6A0AC00DF0A1DF052AEED754EF41
:1001D00001F0092C01D003D0400E0A6E01D00A6A4A
:1001E000010E085C0A260A5080090B6E0C6A0D6E1F
:1001F0008DDF12000750070A07E00B0A0AE0060A23
:1002000010E0020A14E018D0010E086E096EE1DF5A
:1002100018D00C6A010E0D6E79DF020E0A6EF5DE43
:1002200010D0010E086E020E096ED3DF0AD00C6AE0
:10023000100E0D6E6BDF05D0010E0C6E07C00DF0B9
:1002400065DF2DEF01F00900F5520CE0F6CF05F067
:10025000F7CF06F0F5CF07F0CDD705C0F6FF06C003
:10026000F7FFF1D75DEF01F0F86AD09EC150C00BE7
:100270000F09C16E070EB46E94948B940C0EBD6E74
:10028000B76AB66A94928B92BA6E000E0509CA6E6E
:10029000FA0ECB6EBE6EBD50CF0BBD6E7D0EBB6E2B
:1002A000BA50CF0BBA6E55D7010E086E096E91DFAA
:0E02B000040EF66E000EF76EC6D7F6D70300EA
:020000040030CA
:0E0000003FC03E1E0087A1000FC00FE00F4062
:00000001FF
;PIC18F4550
;CRC=978F  CREATED="25-Apr-16 10:30"
